:020000040800F2
:100000000050002025190008C5180008C71800086E
:10001000C9180008CB180008CD180008000000001F
:10002000000000000000000000000000CF180008E1
:10003000D118000800000000D3180008D5180008E7
:100040006D1900086D1900086D1900086D19000878
:100050006D1900086D1900086D1900086D19000868
:100060006D1900086D1900086D1900086D19000858
:100070006D1900086D1900086D1900086D19000848
:100080006D1900086D1900086D1900086D19000838
:100090006D1900086D1900086D1900086D19000828
:1000A0006D1900086D1900086D1900086D19000818
:1000B0006D1900086D1900086D1900086D19000808
:1000C0006D1900086D1900086D1900086D190008F8
:1000D0006D1900086D1900086D1900086D190008E8
:1000E0006D1900086D1900086D1900080000000066
:1000F0000000000000000000000000000000000000
:0C01000000000000000000005FF808F1A3
:10010C0010B5054C237833B9044B13B10448AFF345
:10011C0000800123237010BD280200200000000085
:10012C00C42E000808B5034B1BB103490348AFF3B9
:10013C00008008BD000000002C020020C42E000826
:10014C0010F8012B11F8013B012A28BF9A42F7D075
:10015C00D01A7047034613F8012B002AFBD1181A4A
:10016C000138704738B50E4B054618784FF47A7342
:10017C00B3FBF0F30B4A1068B0FBF3F000F080F81F
:10018C00044658B90F2D09D8024629464FF0FF30C6
:10019C0000F042F8044B20461D6038BD012038BDEC
:1001AC00000000200800002004000020074A08B5C9
:1001BC001368032043F01003136000F01BF80020B9
:1001CC00FFF7D0FF01F0FCFA002008BD0020024030
:1001DC00034A044B11681B780B441360704700BF33
:1001EC008002002000000020014B1868704700BFFF
:1001FC0080020020074A0002D36800F4E06023F478
:10020C00E0631B041B0C43F0BF6343F40033034354
:10021C00D360704700ED00E0174B30B5DC68C4F3D9
:10022C000224C4F10703251D042B28BF0423062D2B
:10023C004FF0010598BF002405FA03F303F1FF33D7
:10024C0088BF033C1940A14005FA04F4013C22404C
:10025C00002842EA01024FEA0212AFBF00F16040EF
:10026C00064B00F00F00D2B2A5BFD2B200F5614030
:10027C001A5480F8002330BD00ED00E014ED00E0CE
:10028C000138B0F1807F0AD2F021064B064A586043
:10029C0082F823100020072298601A607047012012
:1002AC00704700BF10E000E000ED00E02DE9F74FD3
:1002BC0000221646654BDFF8A4E1DFF8A4C14FF02D
:1002CC0001080C6808FA06F808EA0404A0457FD176
:1002DC004D68122D00F0AF8000F28880022D00F0E6
:1002EC00A7807CD8002D00F08E80012D00F09E8020
:1002FC004FF00F09FF2C93BF824606F18045083D55
:10030C00D0F800B092BFB500D0F804B0AD0009FA37
:10031C0005F82BEA080802FA05F588BF00F1040A73
:10032C0048EA0505CAF80050D1F804A01AF0805F1D
:10033C004ED0474D464FAD6926F0030845F00105F8
:10034C00BD61BD6908F1804805F00105019508F50E
:10035C00803806F0030B019D4FEA8B0BD8F8085040
:10036C0009FA0BF925EA09093A4DA84268D005F5B6
:10037C008065A84266D005F58065A84264D005F575
:10038C008065A8420CBF0325042505FA0BF545EA48
:10039C000905C8F808501D681AF4803F14BF25439E
:1003AC00A5431D605D681AF4003F14BF2543A543A7
:1003BC005D609D681AF4801F14BF2543A5439D60A2
:1003CC00DD681AF4001F14BF2C4325EA0404DC601A
:1003DC000136102E7FF473AF03B0BDE8F08F032D00
:1003EC0022D0112D84D1CA68043281E71A4FBD4244
:1003FC0009D012D8DFF86C904D4504D009F580393E
:10040C004D457FF475AF8A68C2B1012A0CBFC0F8A4
:10041C001080C0F8148008226AE77545F3D0654552
:10042C00F1D0DFF84490EBE7002261E7CA685FE7A0
:10043C00CA6808325CE7CA680C3259E7042257E7ED
:10044C000025A2E70125A0E702259EE70004014054
:10045C000010024000080140000021100000311083
:10046C000000321000001110000022100AB10161CE
:10047C0070470904FBE700000122014B1A6070472A
:10048C0020000E4203682DE9F341DB07054610D42A
:10049C002B689F075ED42B68190700F195802B6899
:1004AC005A0700F1BF80EA69002A40F02D81002034
:1004BC0014E0904C636803F00C03042B07D06368C2
:1004CC0003F00C03082B0CD16368DE0309D52368F9
:1004DC009C03DDD56B68002BDAD1012002B0BDE89E
:1004EC00F0816B68B3F5803F10D1236843F48033FF
:1004FC002360FFF779FE064623689803C8D4FFF7FC
:10050C0073FE801B6428F7D90320E7E79BB92368A7
:10051C0023F480332360236823F480232360FFF7C4
:10052C0063FE064623689903B2D5FFF75DFE801B78
:10053C006428F7D9E8E7B3F5A02F236803D143F477
:10054C0080232360D1E723F480332360236823F4D2
:10055C008023CDE7674C636813F00C0F07D06368FA
:10056C0003F00C03082B10D16368DA030DD4236855
:10057C009B0702D52B69012BAFD123686A6923F045
:10058C00F80343EAC203236085E72A695A4B6AB130
:10059C0001221A60FFF728FE064623689F07ECD459
:1005AC00FFF722FE801B0228F7D9ADE71A60FFF790
:1005BC001BFE0646236898077FF56DAFFFF714FE08
:1005CC00801B0228F6D99FE7AA694A4C4B4BDAB13B
:1005DC0001221A60FFF708FE0646636A9B070DD5D9
:1005EC004FF4FA52464B1B68B3FBF2F3019300BF76
:1005FC00019B5A1E0192002BF9D150E7FFF7F4FD35
:10060C00801B0228E9D97FE71A60FFF7EDFD06464B
:10061C00636A9F077FF543AFFFF7E6FD801B022857
:10062C00F6D971E7334CE369D80024D40127E36988
:10063C0043F08053E361E36903F080530093009B24
:10064C00304E3368D90518D5EB68012B26D1236AB7
:10065C0043F001032362FFF7C7FD41F28836804661
:10066C00236A9B073FD5002F3FF41DAFE36923F0AE
:10067C008053E36117E70027E2E7336843F48073A4
:10068C003360FFF7B1FD80463368DA05DCD4FFF741
:10069C00ABFDA0EB08006428F6D935E7ABB9236AAB
:1006AC0041F2883823F001032362236A23F0040308
:1006BC002362FFF799FD0646236A9807D3D5FFF707
:1006CC0093FD801B4045F7D91EE7052B236A03D108
:1006DC0043F004032362BAE723F001032362236A85
:1006EC0023F00403B6E7FFF77FFDA0EB0800B04250
:1006FC00B6D909E700100240000042428004424291
:10070C000800002000700040224C636803F00C03CA
:10071C00082B3FF4E2AE00231F4E022A33602BD18C
:10072C00FFF762FD0746236899011FD42B6AB3F5C6
:10073C00803F05D16268A96822F400320A436260E6
:10074C00696A62680B4322F47412134363600123D9
:10075C003360FFF749FD054623689A013FF5A7AEC4
:10076C00FFF742FD401B0228F6D9CDE6FFF73CFD12
:10077C00C01B0228D7D9C7E6FFF736FD054623680C
:10078C009B017FF594AEFFF72FFD401B0228F6D995
:10079C00BAE600BF001002406000424230B5194B6F
:1007AC0087B002AC03F1100522461868596808336B
:1007BC0003C2AB421446F7D101238DF80430022357
:1007CC0011498DF805304B6803F00C02082A17D13B
:1007DC00C3F3834206A80244DB0312F8102C0CD599
:1007EC004B680A48C3F34043504306AA134413F81A
:1007FC00143CB0FBF3F007B030BD05485043FAE7AA
:10080C000248F8E7DC2E00080010024000127A00C3
:10081C0000093D00544A2DE9F0411368054603F0E8
:10082C0007038B420E462AD329688C0734D4CA0797
:10083C0047D44D4A136803F007039E42C0F08280F0
:10084C002A684A4C12F0040F40F08780130706D533
:10085C0063682A6923F4605343EAC2036360FFF7B9
:10086C009DFF6368424AC3F30313D35CD840414BEA
:10087C0018600020FFF776FC0020BDE8F0811368BB
:10088C0023F007030B431360136803F0070399422B
:10089C00CAD00120BDE8F081344B11F0040F1EBF0B
:1008AC005A6842F4E0625A60080742BF5A6842F440
:1008BC0060525A605A68A86822F0F00202435A60EB
:1008CC00B5E76A68294C012A23681CD113F4003F50
:1008DC00DFD0636841F2883823F00303134363606D
:1008EC00FFF782FC6B680746012B14D1636803F099
:1008FC000C03042B9DD0FFF777FCC01B4045F5D9AA
:10090C000320BDE8F081022A02D113F0007FDFE75B
:10091C0013F0020FDCE7022B0FD1636803F00C031A
:10092C00082B86D0FFF760FCC01B4045F5D9E7E7E4
:10093C00FFF75AFCC01B4045E2D8636813F00C0F5C
:10094C00F6D176E7136823F007033343136013687B
:10095C0003F007039E429CD172E76368E96823F4B5
:10096C00E0630B43636071E700200240001002401B
:10097C00082F000808000020044B054A5B68C3F3ED
:10098C00C223D35C034A1068D84070470010024061
:10099C00182F00080800002003682DE9F341D9073F
:1009AC00054620D5354CE369DA0032D40127E369DA
:1009BC0043F08053E361E36903F080530193019B9F
:1009CC002F4E3368DB0526D5236A13F4407336D1DA
:1009DC00236A6A6823F44073134323621FB1E369EB
:1009EC0023F08053E3612868830706D5234AA9685E
:1009FC00536823F440430B43536010F010001BD09A
:100A0C001E4AE9685368002023F480030B435360AB
:100A1C0012E00027D4E7336843F480733360FFF7A8
:100A2C00E3FB80463368D805CED4FFF7DDFBA0EBA3
:100A3C0008006428F6D9032002B0BDE8F0816A688A
:100A4C0002F440729342C3D001200E4A236A106014
:100A5C00002023F4407110602162D907B8D5FFF74C
:100A6C00C3FB41F288380646236A9A07B0D4FFF7D5
:100A7C00BBFB801B4045F7D9DDE700BF00100240EF
:100A8C00007000404004424270B50446354B86B0BD
:100A9C0002AD03F110062A4618685968083303C2E0
:100AAC00B3421546F7D101238DF8043002239C4242
:100ABC008DF8053047D0102C17D0012C4FD140F2B7
:100ACC000231294A136A1940B1F5817F44D003F4ED
:100ADC004073B3F5007F2DD149F64040536A13F0B3
:100AEC00020F08BF002006B070BD1F4B5968186874
:100AFC0010F08070F7D0C1F3834206A8024412F8BC
:100B0C00100CCA0341BF5A6806A9C2F340425218DE
:100B1C0044BF12F8141C154A5B684CBFB2FBF1F2CF
:100B2C00134A5B0202FB00F0DDD403234000B0FB50
:100B3C00F3F0D8E7B3F5407F11D113684FF224409E
:100B4C0013F4003FCDE7FFF717FF074B5B68C3F3C8
:100B5C00813301335B00EAE74FF40040C3E7002028
:100B6C00C1E700BFEC2E00080010024000127A0012
:100B7C0000093D00036830B59A69D869996995B246
:100B8C008CB2A5421DBFD86980B240EA014080B248
:100B9C0008BF40EA024030BD0368186A5B6A9BB22A
:100BAC0043EA004070470023092803D840EA0310A9
:100BBC00C0B270470A380133C0B2F5E70A22030904
:100BCC0000F00F0002FB0300C0B27047022970B5A1
:100BDC004FF0170300F5FA654FF009061AD84B438E
:100BEC0000F2CF74B3FBF6F04FF4C873B4FBF3F31D
:100BFC0004322A44104400EB940018446423B4FBE0
:100C0C00F3F4001B0723B0FBF3F3C3EBC303C01ACD
:100C1C00C0B270BD03FB01F0B0FBF6F002322A4407
:100C2C004FF4C87310446422B5FBF3F3B5FBF2F236
:100C3C0000EB95001844801AE4E738B50446FFF73A
:100C4C00D3FA054623685A68920605D55A680020DF
:100C5C0042F010025A6038BDFFF7C6FA401BB0F5DF
:100C6C007A7FEFD9032038BD026838B55368044643
:100C7C0023F010035360FFF7B7FA054623685B684F
:100C8C009B0601D5002038BDFFF7AEFA401BB0F52E
:100C9C007A7FF3D9032038BD38B505460C46FFF7EB
:100CAC00CCFF58B92B68220CA4B29A612846DC619F
:100CBC00FFF7DAFF003018BF012038BD012038BD26
:100CCC0038B505460C46FFF7B8FF58B92B68220C0F
:100CDC00A4B21A6228465C62FFF7C6FF003018BF48
:100CEC00012038BD012038BD70B50446E0B1D9B142
:100CFC00037C0226012B46D001234674037408782A
:100D0C004E78897892B93C254FF46163754303FBA7
:100D1C000050451829462046FFF7BEFF0646B0B1E5
:100D2C00042363740023237401262CE0FFF746FF91
:100D3C0005463046FFF742FF3C2358434FF46163AE
:100D4C0003FB05050846FFF739FF0544E2E7226877
:100D5C002046536823F005035360FFF71DFF431C27
:100D6C000DD085420BD900F5A83101F5C071204694
:100D7C00FFF7A6FF18B1042326746374D4E701238C
:100D8C00637400232374304670BD00002DE9F843D2
:100D9C000D469046044610B90120BDE8F8830029A1
:100DAC00FAD003685B685E07F6D4FFF7E3FE4FF4F6
:100DBC006162B0FBF2F3074602FB13023C20B2FB6C
:100DCC00F0F100FB1122172B6970AA7040F285809C
:100DDC001821B3FBF1F201FB123320462B70FFF705
:100DEC00DBFE411C064604D087422CBF4FF0FF3679
:100DFC00C61B404B2046B7FBF3F903FB1979494658
:100E0C00FFF74AFF0028C7D1721C2FD009EB06014F
:100E1C002046FFF755FF0028BED1364B0026B7FB06
:100E2C00F3F74FF0640E4FF4C87C40F2D529E07B09
:100E3C00617BA27BB7421BD1C9B2D2B2E0736173A2
:100E4C00A273FFF7C3FE2073B8F1000F0BD0287804
:100E5C00FFF7A9FE28706878FFF7A5FE6870A878E0
:100E6C00FFF7A1FEA8700020BDE8F8833146CFE75C
:100E7C004B1E092B35D829FA03F3DB072FD421F0AD
:100E8C000203042B01D0092B04D11D2A06D90131F0
:100E9C0001222DE002292BD11B2A01D8013227E097
:100EAC001C2A13D182B2930712D1B2FBFEF30EFBB4
:100EBC0013239BB27BB9B2FBFCF30CFB13239BB249
:100ECC00002B16BF01221D22032111E01D2A0FD178
:100EDC00012203210CE01D220AE02B70B4E71E2A2C
:100EEC00D4E70C29CBD11E2AD8D9012211460130C6
:100EFC0001369FE78051010070B50D46044658B38A
:100F0C0051B3037C0220012B27D00123607423747E
:100F1C00C8781ABBE0734B7863738B78A373A27B8E
:100F2C00617BE07BFFF752FE207328702046FFF7B1
:100F3C0021FE1C4B984230D9A3F60F63B0FBF3F59E
:100F4C0003FB150520462946FFF7A6FE064688B189
:100F5C000423637400232374012070BDFFF72EFE5D
:100F6C00E0734878FFF72AFE60738878FFF726FE57
:100F7C00A073D4E72046FFF70FFE431C0DD085422B
:100F8C000BD900F5A83101F5C0712046FFF798FE8A
:100F9C0018B1042326746374DEE701230020637404
:100FAC00207470BD8F5F0100F7B5174600220C4608
:100FBC00ADF804208DF80620054618B9012210461C
:100FCC0003B0F0BD0029F9D001A9FFF7DFFE0246FE
:100FDC000028F3D12B7B2370E87BE0706E7B66706E
:100FEC00A97BA170002FEAD0FFF7DDFDE070304641
:100FFC00FFF7D9FD60700846FFF7D5FDA070DEE75E
:10100C0038B50446A8B10268536823F0080353604E
:10101C00FFF7EAF8054623685B681B0701D500203B
:10102C0038BDFFF7E1F8401BB0F57A7FF3D9032008
:10103C0038BD012038BD000010B5044670B1437CAA
:10104C0003F0FF0213B9027400F0DCFB022320460C
:10105C006374FFF7D5FF18B104236374012010BD2E
:10106C002046FFF7EAFD0028F6D12268A0685368F5
:10107C0023F007035360174A18B1116B21F00101DB
:10108C001163D36A23F460730343D3626068431C17
:10109C0005D10120FFF7F8FC0028DDD001382268CB
:1010AC00936823F00F0343EA10439360D36880B234
:1010BC001B0C1B041843D0602046FFF7D5FD012301
:1010CC0010B104226274C9E7E0736373A373637491
:1010DC0010BD00BF006C0040036A70B523F0010323
:1010EC000362036A446882690D6822F073022A4322
:1010FC008D6823F002032B430A4DA8420BD1CD6817
:10110C0023F008032B438E694D6924F44074354356
:10111C0023F004032C43446082614A6842630362F7
:10112C0070BD00BF002C0140036A70B523F48073BE
:10113C000362036A4468C2690D6822F073022A4391
:10114C008D6823F4007343EA05230B4DA8420DD19F
:10115C00CD6823F4006343EA05238E694D6924F4BA
:10116C004054354323F4806344EA05144460C2615F
:10117C004A68C263036270BD002C0140036A30B53B
:10118C0023F480530362036A4468C2690D6822F435
:10119C00E64242EA05228D6823F4005343EA053304
:1011AC00064DA84202BF4D6924F4804444EA8514DC
:1011BC004460C2614A680264036230BD002C014085
:1011CC001A4A036890420AD0B0F1804F07D0A2F5BA
:1011DC009432904203D002F58062904215D14A6855
:1011EC0023F070031343114A90420AD0B0F1804FA0
:1011FC0007D0A2F59432904203D002F5806290425F
:10120C0003D1CA6823F4407313434A6923F0800363
:10121C00134303608B68C3620B688362034B984271
:10122C0004BF0B690363012343617047002C014029
:10123C0010B50446A0B190F83D3003F0FF021BB985
:10124C0080F83C2000F0FCFA0223206884F83D3042
:10125C00211DFFF7B5FF0123002084F83D3010BDA0
:10126C00012010BD036A70B523F010030362036AFA
:10127C00446882690D6822F4E64242EA05228D68D0
:10128C0023F0200343EA05130B4DA8420DD1CD6882
:10129C0023F0800343EA05138E694D6924F44064FE
:1012AC00354323F0400344EA8504446082614A6874
:1012BC008263036270BD00BF002C014038B590F80A
:1012CC003C300446012B4FF0020025D0012384F85A
:1012DC003D0084F83C300C2A18D8DFE802F00717E0
:1012EC0017171E1717172F17171740002068FFF72F
:1012FC00F3FE236809699A6942F008029A619A69B7
:10130C0022F004029A619A690A439A61012300202F
:10131C0084F83D3084F83C0038BD2068FFF7A2FF0C
:10132C00236809699A6942F400629A619A6922F405
:10133C0080629A619A6942EA0122E6E72068FFF727
:10134C00F3FE23680969DA6942F00802DA61DA69A6
:10135C0022F00402DA61DA690A43DA61D6E720681E
:10136C00FFF70CFF23680969DA6942F40062DA615D
:10137C00DA6922F48062DA61DA6942EA0122ECE786
:10138C0010B50124036A8C4023EA04030362036A48
:10139C008A401A43026210BD10B50446012200684F
:1013AC00FFF7EEFF2368064A0020934202BF5A6CF7
:1013BC0042F400425A641A6842F001021A6010BDED
:1013CC00002C014010B5044600220068FFF7D8FF3E
:1013DC002368124A93420DD141F21112196A11423B
:1013EC0008D140F24442196A114202BF5A6C22F4ED
:1013FC0000425A6441F21112196A114208D140F2AA
:10140C004442196A114202BF1A6822F001021A60A2
:10141C000123002084F83D3010BD00BF002C01409A
:10142C0090F83C30012B1FD0CB688A6823F44073B2
:10143C0013434A6823F4806313430A6823F400635C
:10144C0013430A6923F4805313434A6923F400536A
:10145C0013438A6923F44043134302685364002303
:10146C0080F83C30184670470220704790F83C30AA
:10147C0010B5012B4FF0020318D080F83D300368F3
:10148C000C685A68496822F070025A605A68224304
:10149C005A609A6822F080029A609A680A439A60AD
:1014AC00012380F83D30002380F83C30184610BDF5
:1014BC0001224FF400510148FEF7D8BF0010014043
:1014CC0000224FF400510148FEF7D0BF001001403C
:1014DC00282230B595B00DEB0200002100F06CFB1A
:1014EC00142200210DEB020000F066FB10220021FB
:1014FC0001A800F061FB05230A934FF4803301240B
:10150C0002250B9312934FF4E0130AA813930D9436
:10151C000E941195FEF7B6FF0F234FF480620593DE
:10152C000023294605A80793089209930695FFF70F
:10153C0071F94FF4807301A801940293FFF72CFA10
:10154C0015B030BD002330B585B003A8ADF804301C
:10155C008DF80630029300F0F1FB03A800F026FA98
:10156C0004468368114D8DF80430436801A98DF849
:10157C0005300368012228468DF80630FFF7B4FBCE
:10158C00A36901228DF80830236902A901338DF873
:10159C000930E36828468DF80A3063690A3B8DF8F8
:1015AC000B30FFF7A9FC05B030BD00BF8402002052
:1015BC0080B5A4B0FEF7FAFDFFF78AFF10220021D8
:1015CC001DA800F0F9FA614B4FF400519A6960487C
:1015DC0042F010029A619A69002402F010021192F2
:1015EC00119A9A69012642F020029A619A694FF485
:1015FC00005702F020021292129A9A69554D42F04D
:10160C0004029A619B69002203F004031393139B59
:10161C00FEF72CFF02231DA94D4820931D971E9603
:10162C001F94FEF743FE1C22214616A81494159411
:10163C0000F0C2FA1C2221461DA800F0BDFA464B50
:10164C00284685E81800AC60EC602C616C61AC61DC
:10165C00FFF7EEFD14A9284614941594FFF706FF26
:10166C006023042216A928461693179418941994EB
:10167C001A941B941C94FFF721FE1DA9284622974F
:10168C001D941E941F94209421942394FFF7C8FE5C
:10169C00284600F0E9F84FF480734FF0FF322F4FDB
:1016AC002F49384687E80E00ADF858408DF85A405F
:1016BC001D94FFF7C1FC324616A938468DF85840E8
:1016CC008DF859408DF85A40FFF70EFB32461DA994
:1016DC0038468DF874608DF875608DF876608DF8ED
:1016EC0077402E46FFF708FCFFF72CFFDFF87480DD
:1016FC00DFF8749001221B493846FFF755FC012294
:10170C0019493846FFF742FB98F80030012BF1D10C
:10171C0099F80030062B16D180230E93FF236C46CC
:10172C000D930023114D0C930FCD0FC40FCD0FC48F
:10173C0095E80F0084E80F0096E80F0000F018F809
:10174C00FFF7B6FED6E7FFF7BBFED3E7001002406B
:10175C000010014098020020002C0140840200205F
:10176C00002800404402002048020020A80200206B
:10177C0084B000B589B00DF1280E8EE80F007046CC
:10178C001A99FFF71FFEBDF86C300AA80D93FFF7EE
:10179C004FFD60230193BDF870301A9A0293002319
:1017AC0001A90AA803930593FFF788FD1A990AA8C3
:1017BC00FFF7F2FD09B05DF804EB04B070470000D0
:1017CC000E4B82B09A6942F001029A619A6902F05A
:1017DC0001020092009ADA6942F08052DA61DB6908
:1017EC00074A03F080530193019B536823F0E06395
:1017FC0043F00073536002B0704700BF001002400A
:10180C000000014007B50B4B02689A420ED1FEF75F
:10181C0033FE094BDA6942F00062DA610122DB69BE
:10182C0003F000630193019B044B1A6003B05DF855
:10183C0004FB00BF00280040001002403C04424260
:10184C000268084B82B09A420AD103F564439A6944
:10185C0042F400629A619B6903F400630193019B5B
:10186C0002B07047002C014010B5044686B010221F
:10187C00002102A800F0A0F922680D4B9A4214D165
:10188C0003F564439A6902A942F004029A619B69C8
:10189C00084803F004030193019B4FF40073029377
:1018AC00022303930593FEF701FD06B010BD00BFA4
:1018BC00002C0140000801407047FEE7FEE7FEE700
:1018CC00FEE7704770477047FEF782BC0F4B1A68F3
:1018DC0042F001021A6059680D4A0A405A601A68AF
:1018EC0022F0847222F480321A601A6822F4802268
:1018FC001A605A6822F4FE025A604FF41F029A6072
:10190C004FF00062034B9A60704700BF001002401A
:10191C000000FFF800ED00E0002103E00B4B5B58EA
:10192C00435004310A480B4B42189A42F6D30A4AE8
:10193C0002E0002342F8043B084B9A42F9D3FFF72C
:10194C00C5FF00F00FF8FFF733FE70475031000869
:10195C00000000202802002028020020DC020020C9
:10196C00FEE7000070B500250C4E0D4CA41BA41016
:10197C00A54209D101F0A0FA00250A4E0A4CA41B7D
:10198C00A410A54205D170BD56F8253098470135F5
:10199C00EEE756F8253098470135F2E74831000854
:1019AC0048310008483100084C31000838B5074B65
:1019BC0005461C68E36B1BB9242000F0EDF8E063CE
:1019CC00E16B2846BDE8384000F002B85400002016
:1019DC002DE9F0410C46804600F050FC21460746AC
:1019EC00404600F04FFC4669044606F26C76B3079D
:1019FC0005D1642296FBF2F302FB1363FBB94FF49F
:101A0C00C87396FBF3F503FB1565B5FA85F56D09FF
:101A1C0030225F4B02FB053500F04CFA00F04CFA1B
:101A2C005C4B1B68E3B17B689E420AD13968D8F8DD
:101A3C000030FA6969B993420DDB012310E00125EE
:101A4C00E6E7304600F08EF90028EFD14FF0FF3377
:101A5C0006E0934254DBBA6B9342ACBF00230123E4
:101A6C002362236A3C20012B4FF461630CBFF96B9A
:101A7C00396A91FBF3F603FB161393FBF0F200FBB0
:101A8C00123061682368891AA2681B1A921B3B2BBF
:101A9C0023606160A26035DD013161603C3B2360F5
:101AAC0063683B2B34DD0132A2603C3B6360A3686E
:101ABC00172B33DDE269183B0132E261A269A360A6
:101ACC000132062AC8BF0022A261E26823690132F2
:101ADC00E26055F823108A420DDD01330C2BA2EB8A
:101AEC000102E26005BF002263692361013302BF7A
:101AFC0022616361E26100F0DEF92046BDE8F0810D
:101B0C000023ADE7002BCBDA013961603C33C6E72B
:101B1C00002BCCDA013AA2603C33C7E7002BEADA9F
:101B2C00E2691833013AE261A269A360013A48BF45
:101B3C000622A261E268013AE260002ADBD1236945
:101B4C00013B05D42361236955F82330E360D2E7C8
:101B5C000B23236163695A1E12F0030F626103F2B7
:101B6C006B7205D1642192FBF1F301FB132363B972
:101B7C004FF4C87192FBF1F301FB1323B3FA83F317
:101B8C005B0903F5B673E361DDE70123F9E700BFF9
:101B9C00202F000870020020024B0146186800F04C
:101BAC005FB800BF54000020024B0146186800F0DB
:101BBC000BB800BF5400002003460244934200D1EE
:101BCC00704703F8011BF9E738B50546002943D0E7
:101BDC0051F8043C0C1F002BB8BFE41800F0EAFBD2
:101BEC001E4A1368104633B9636014602846BDE87A
:101BFC00384000F0E0BBA3420BD921686218934235
:101C0C0001BF1A685B685218226063600460EDE7DC
:101C1C0013465A680AB1A242FAD919685818A04258
:101C2C000BD120680144581882421960DED110682B
:101C3C005268014419605A60D8E702D90C232B6012
:101C4C00D4E7206821188A4201BF1168526809182C
:101C5C00216062605C60C9E738BD00BF4C020020A7
:101C6C0070B5CD1C25F0030508350C2D38BF0C259F
:101C7C00002D064601DBA94203D90C23336000205A
:101C8C0070BD00F097FB234A1468214691B9224C91
:101C9C0023681BB9304600F041F8206029463046D5
:101CAC0000F03CF8431C26D10C233046336000F086
:101CBC0082FBE4E70B685B1B1AD40B2B0FD90B6070
:101CCC00CC18CD50304600F076FB04F10B00231DF0
:101CDC0020F00700C31A1BD05A42E25070BD8C4250
:101CEC000BBF63684B681360636018BF0C46E9E771
:101CFC000C464968CAE7C41C24F00304A04205D072
:101D0C00211A304600F00AF80130CDD02560D9E711
:101D1C0070BD00BF4C0200205002002038B50023DB
:101D2C00054C05460846236001F0B8F8431C02D167
:101D3C00236803B12B6038BDD802002013B5084BC3
:101D4C00044600221868694600F086FA0028BCBFD9
:101D5C004FF0FF330093009804B1206002B010BD27
:101D6C00540000202DE9F74F044600F087FA40F2AA
:101D7C00B1739C4240F398806FF4F66340F26D129D
:101D8C00E3189B10A4F2B27502FB05356FF06302E9
:101D9C00A4F26D7393FBF2F36FF4C8621D444FF41D
:101DAC00C873A21892FBF3F294FBF3F71544642268
:101DBC0003FB174794FBF2F6B7FA87FE01466FF068
:101DCC00404C02FB164600F13803019304F0030368
:101DDC0044604FEA5E1E00930B7A4A2B23D14C6968
:101DEC00009A2B1902B906B9DFB93B2CD4BF0024D9
:101DFC0001241C44013C2D4B8A6903FB04240B6A0F
:101E0C001C44019B41F81C4F8B42E5D1C369826B8A
:101E1C009342ACBF002301230360012003B0BDE853
:101E2C00F08F0024E5E7442B02D14B69EC18E2E774
:101E3C00009B7BBB002E0CBFF0464FF001083022FC
:101E4C001B4B4FF0010902FB08382B46CC68A8F15C
:101E5C00040AA14520DB0722012CB8BF012403F1A1
:101E6C00040B9BFBF2FAA146CAEBCA0A4C69ABEB1A
:101E7C000A0AB4EB0A0A0C69E14404F1FF3448BFC6
:101E8C009244C4EBC40458F829805444444509DAFC
:101E9C001C44B0E7F046D2E75AF804BF09F1010937
:101EAC005B44D6E7073CF1E70020B7E7805101001F
:101EBC00202F000870477047014B186800F002B8DB
:101ECC00540000202DE9F04F8DB0074600F0D6F9F4
:101EDC00B1490546384600F0B7F9B04E044670B922
:101EEC00AF4BB04A1860B04B1860B04B30681A60FA
:101EFC005A60FFF759FE34600DB0BDE8F08F3168C1
:101F0C00002960D13068FFF74FFE2046FEF722F91A
:101F1C00411C3846FFF7A4FE3060002858D12378C6
:101F2C000AAE3A2B08BF01343346A14AA1492046D8
:101F3C0000F042FA0028DFDD0A9BE718E35C2D2B4A
:101F4C004AD14FF0FF3401374FF000080DF1200A51
:101F5C000DF11E0B0396CDF808A00196CDF800B03C
:101F6C00334607AA94493846ADF81E80ADF8208058
:101F7C0000F022FA4045BFDD3C21BDF81E30BDF813
:101F8C002020DFF8409201FB03224FF46161BDF881
:101F9C001C3001FB03235C43854B2C62834C4A466B
:101FAC0023600A9B83491F443846334600F004FAE9
:101FBC00404516DC23682A6A6360794B1A607A4BB9
:101FCC00C3F8008098E7FEF7BBF8002894D099E797
:101FDC00214600F01DFAA2E72B2B08BF0137012484
:101FEC00B2E70A9BC4F80490FC18FB5C2D2B40F064
:101FFC0092804FF0FF37013400230396ADF81C306C
:10200C00ADF81E30ADF820300A93CDF808A001963B
:10201C00CDF800B0334607AA6749204600F0CCF94A
:10202C0000287DDC2B6AA3F56163EB632F464FF030
:10203C0000090A9B1C4423782C2B08BF013494F80C
:10204C000080B8F14D0F7BD10DF12603029309AB43
:10205C0000930396019633460DF122025749204610
:10206C0000F0AAF903287FF447AFBDF822104B1EED
:10207C000B2B3FF641AFBDF82420531E042B3FF62B
:10208C003BAFBDF82630062B3FF636AF87F80880FD
:10209C00F9603A617B610A9B04EB03080223ADF8FB
:1020AC001C300023ADF81E30ADF820300A9398F8A0
:1020BC0000302F2B0BD10396CDF808A00196CDF84C
:1020CC0000B0334607AA3E49404600F075F93C2162
:1020DC00BDF81E30BDF8202009F1010901FB0322D7
:1020EC004FF46161BDF81C30B9F1020F01FB032301
:1020FC00BB610A9C07F11C0744449CD16868FFF73C
:10210C0031FE2A6A264B1A60EB6B9B1A18BF01230F
:10211C00254A1360F0E62B2B08BF013401276BE72F
:10212C003C21BDF81E30BDF8202001FB03224FF4EA
:10213C006161BDF81C3001FB03235F43EF6375E75E
:10214C00B8F14A0F0ABF4346442301340A220BA9B3
:10215C002046059300F006FADDF82C80ADF8260039
:10216C004445059B14D14D23B9F1000F07D12B72B7
:10217C000323EB600223C5F814902B618EE785F8DE
:10218C0024300B23AB620123EB6200232B6385E726
:10219C0080B23B72786181E7802F00086C020020CE
:1021AC0074020020832F0008700200200C00002015
:1021BC005F020020872F0008AA2F0008962F000826
:1021CC00A92F0008540200202DE9F04706468A4644
:1021DC00174600F0DDF91B4BD3F800809946B8F197
:1021EC00000F07D05446234613F8012B32B33D2A77
:1021FC001C46F8D1304600F0CCF90020BDE8F08741
:10220C0008F10408D8F800000028F3D02246514603
:10221C0000F006F90028F3D1D8F800301D191B5D29
:10222C003D2BEDD1D9F800303046A8EB03039B10C1
:10223C003B6000F0AEF9681CBDE8F087A4EB0A0423
:10224C00E0E700BFB800002007B501AAFFF7BCFF0C
:10225C0003B05DF804FB000038B50023064C0546BE
:10226C0008461146236000F011FE431C02D123687E
:10227C0003B12B6038BD00BFD80200200048704766
:10228C001400002002684748F0B592FBF0F34FF4BD
:10229C00616400FB13200028BCBF00F5A83000F5DA
:1022AC00C07090FBF4F204FB12004FF03C048A6007
:1022BC0090FBF4F204FB12004A604FF0070203F5A6
:1022CC002F23ACBF03F66C2303F66B230860D81CDA
:1022DC0090FBF2F2344CC2EBC20293FBF4F4821A80
:1022EC0048F6AC6040F2B4578A61304A40F26D1641
:1022FC0002FB0433B3FBF0F0B3FBF7F21844801A83
:10230C002B4AB3FBF2F2821A48F69460B2FBF0F05F
:10231C00B2FBF6F5B2FBF7F2034499209A1A06FBCE
:10232C00152303EB83020232B2FBF0F20527504374
:10233C000230B0FBF7F00A2A03F10106A6EB00000D
:10234C0034BF02266FF0090616444FF4C87202FB24
:10235C000454012E98BF0134B3F5997F0BD3A3F528
:10236C009973CB610023A4F26C74C8604C610E614C
:10237C000B620846F0BDAA0705D16427B5FBF7F23E
:10238C0007FB12525AB94FF4C877B5FBF7F207FBAB
:10239C001252B2FA82F252093B331344E1E70122A2
:1023AC00FAE700BF80510100B13A02004FC5FDFFB2
:1023BC00B03A0200704770470EB44FF4017230B55A
:1023CC009CB01FAC54F8045BADF81420029006903E
:1023DC00FDF7C0FE0B4B03900B9300230F9314934C
:1023EC004FF6FF7307900848ADF816302A4623467F
:1023FC0002A90068019400F04BF91CB0BDE8304014
:10240C0003B07047192400085400002000207047C6
:10241C00034611F8012B03F8012B002AF9D1704760
:10242C0010B56AB10139841810F8013B11F8012F6D
:10243C00934203D1A04201D0002BF5D1981A10BDC4
:10244C00104610BD2DE9F0478046894692461E463F
:10245C000F463D46089815F8014B00F09BF82044B8
:10246C00437813F008030AD12D2C0AD101232C78C0
:10247C00BD1C5EB1102E13D1302C09D010E02F46AC
:10248C00E7E72B2C04BF2C78BD1CF2E7302C25D1B0
:10249C002A7802F0DF02582A4AD110266C780235CD
:1024AC004FF0FF31B1FBF6F1002706FB01FE384679
:1024BC006FEA0E0EA4F13002092A11D81446A64276
:1024CC001DDD002F18DB814216D301D1A64513DB8D
:1024DC00012700FB064015F8014BEBE70A26DFE766
:1024EC00A4F14102192A01D8373CE8E7A4F16102B2
:1024FC00192A04D8573CE2E74FF0FF37EBE7002FDF
:10250C0009DA22234FF0FF30C8F80030BAF1000F7F
:10251C0007D1BDE8F08703B14042BAF1000F0CD0EF
:10252C0027B1013DCAF80050BDE8F0874D46F9E7E8
:10253C003024002EB4D10826B2E7BDE8F0870000A5
:10254C0037B5064C064D2468246A002C08BF2C466F
:10255C000094FFF777FF03B030BD00BF540000209C
:10256C00BC000020084B37B51C68084D236A002BB3
:10257C0008BF2B46009313460A4601462046FFF738
:10258C0061FF03B030BD00BF54000020BC00002030
:10259C0070477047D0F8EC0070470000044B054AB8
:1025AC001B681B6A002B08BF1346D3F8EC0070475E
:1025BC0054000020BC00002082B001B901A942B136
:1025CC004BB113780B601278101C18BF012002B0AD
:1025DC0070471046FBE76FF00100F8E738B54B1C6D
:1025EC00144603D14FF0FF35284638BD9389CDB240
:1025FC0023F020039381536B52688BB1A36B9A42E7
:10260C0008DA23685A1E226003F8015C6368013300
:10261C006360E9E7214600F0ABFB0028F1D0E1E76D
:10262C002169236851B1994208D213F8011C8D42DB
:10263C0004D1013B013223606260D5E7E36304F10E
:10264C00440363630323A3632346226403F8465FB6
:10265C0023600123DCE710B50C46496B69B104F12A
:10266C004403994201D0FFF7AFFA0020236C60635A
:10267C00636013B1E36B236010BD23694FF0FF302F
:10268C00236000236360A38943F02003A38110BD62
:10269C002DE9F04FADF5257D0193002306460C4640
:1026AC0092460A27469347939F4B0DF10C08A29331
:1026BC009E4BDFF87C92CDF82081A3939AF80030E2
:1026CC00002B00F02F81FFF769FF9AF800B05844F7
:1026DC00437813F0080343D1BBF1250F0AF1010530
:1026EC0040F09980459343939AF801302A2B03D1FB
:1026FC0010230AF1020543932978AA46A1F130026E
:10270C00092A05F1010541D90322894800F076FB1D
:10271C0038B1A0EB09030120AA469840439B18430B
:10272C0043909AF800300AF10105672B4AD8652BC3
:10273C0080F0B780472B2FD8452B80F0B280002B30
:10274C0000F08280252B66D003234497499345E003
:10275C004799013301314791616823600139616008
:10276C006368002B0BDDFFF719FF23681978084409
:10277C0041780D07ECD40AF10105AA469EE7A39B0C
:10278C002146304698470028EDD0F4E7459B07FBDF
:10279C000313303B4593AFE75B2B61D00CD8582B20
:1027AC00D2D1439A42F400724392102244926F2B7E
:1027BC00B4BF0323042310E0632B5CD0642BC3D180
:1027CC004497F4E7702B42D01DD86E2B59D043D8C8
:1027DC00692BB9D100234493032349936368002BDD
:1027EC0061DD439B59066FD5499B022B7CDC01AB09
:1027FC00224643A9304600F09FF8012800F0928051
:10280C000228BAD11DE0752BDAD0782BC9D0732BE6
:10281C009AD10223E1E76368002B0CDD23681A7858
:10282C0093457FD1013362682360479B013A0133A2
:10283C0062604793A1E7A39B214630469847002846
:10284C00ECD04698002863D14FF0FF3066E0439AF5
:10285C0042F020024392A4E7082344930423BCE7EC
:10286C002946404600F0C2F9439B054643F040031D
:10287C0043930123B1E7439B43F04003439300236D
:10288C00ABE7439AD0063FF578AF12F0010F019AEF
:10289C00479B02F104010191126814BF138013606D
:1028AC006BE7052399E7A39B214630469847002800
:1028BC0097D0C6E7479A013247926268013A002ADC
:1028CC0062600ADD01332360FFF768FE23681A7823
:1028DC00104442781207EDD486E7A39B214630467C
:1028EC0098470028F0D0ACE7042B06DC01AB22465D
:1028FC0043A9304600F084F87FE70E4B002B3FF4E1
:10290C003CAF01AB224643A93046AFF3008074E7DD
:10291C00A38913F0400F18BF4FF0FF300DF5257D44
:10292C00BDE8F08F4698F9E7E92500086326000812
:10293C00C62F0008000000002DE9F04115468A68FA
:10294C0080460C4632B98A69002A0CBF01224FF02E
:10295C00FF328A6000262268D1065FBF1A68111DFB
:10296C0019601768A369DBB1012B07D12B68626969
:10297C001B78D35CA3B9002E31D106E0022B07D013
:10298C00002E2CD1A369012B29D10120BDE8F081A7
:10299C00FFF704FE2B681B78184443781B07EFD411
:1029AC0023680136DA065EBF2B681B783B702A68F9
:1029BC006B6802F101022A60A26803F1FF3302F195
:1029CC00FF326B6058BF0137A26042B1002BC9DCEB
:1029DC00D4F880312946404698470028C2D0236855
:1029EC0013F0100305D1E2680132E260A26902B172
:1029FC003B70236900201E442661BDE8F081000075
:102A0C002DE9F04F0C469A46744B87B08346164618
:102A1C0093E8070003ABA76883E80700704BA16934
:102A2C00704A04F11C09032918BF1A467B1EB3F522
:102A3C00AE7F84BF40F25D13A360236888BF6FF440
:102A4C00AE7543F45063236098BF00274B464FF09C
:102A5C000008009288BF7F193168019303AB53F8CB
:102A6C0028000222097800F0C9F9019B28B3B8F1BB
:102A7C00010F56D162682AB908226260226842F4BA
:102A8C0000722260226822F4A0622260A268511EA9
:102A9C00A16092B132685D1C511C316012781A70C1
:102AAC007368013B002B736006DCD4F8803131462F
:102ABC0058469847002877D12B4608F10108B8F101
:102ACC00030FC9D162680AB90A226260626846497A
:102ADC006069891A019300F089F8019B4FF0000896
:102AEC001D46A368002B39D0316860690A78805C78
:102AFC00002833D0302A226821D110051FD508F1C7
:102B0C00010817B10133013FA3607368013B002B2F
:102B1C0073601CDD336801333360A368013BA36031
:102B2C00DFE7B8F1020FB1D1226802F4C061B1F550
:102B3C00007FC2D1102142F480726160A5E722F4BB
:102B4C00106222600B78013505F8013CDDE7D4F802
:102B5C0080313146584698470028DED02368D90585
:102B6C000CD54D4508D915F8011C6F1ED4F87C31D5
:102B7C003246584698473D464D452CD0226812F0B7
:102B8C0010021ED12A70636849465846009EB04711
:102B9C002268DAF8003012F0200F08D01A1DCAF89B
:102BAC0000201B68186009E04FF00008D6E7D20738
:102BBC00F4D51A1DCAF800201B681880E36801338D
:102BCC00E3600020A5EB0905A8442569454425616F
:102BDC0007B0BDE8F08F0120FAE700BFFC2E00081B
:102BEC004D250008592D0008DA2F000870B50B7818
:102BFC00441E5E2B13BF4A1C8A1C4B78002108BF55
:102C0C00012100F1FF0504F8011FA542FBD113B906
:102C1C00013A104670BD81F001041146C4540D7880
:102C2C004A1C2D2D06D05D2DF3D00DB90A46F0E7C8
:102C3C002B46F2E74E785D2EFAD0B342F8DC023127
:102C4C0001339E42C454FBDCE9E72DE9F84F804682
:102C5C00894692461F468B465D460A9815F8014BED
:102C6C00FFF798FC2044467816F008060BD12D2C63
:102C7C000BD101262C780BF1020567B1102F14D162
:102C8C00302C0AD011E0AB46E6E72B2C04BF2C7895
:102C9C000BF10205F1E7302C27D12B7803F0DF0381
:102CAC00582B4BD110276C780235002E0CBF6FF0CF
:102CBC0000414FF000410022B1FBF7FE104607FB2C
:102CCC001E1CA4F13003092B11D81C46A7421DDD94
:102CDC00531C07D0864516D301D1A44513DB012222
:102CEC0000FB074015F8014BEBE70A27DDE7A4F1E1
:102CFC004103192B01D8373CE8E7A4F16103192BE8
:102D0C0004D8573CE2E74FF0FF32EBE7531C08D1F5
:102D1C0022230846C8F80030BAF1000F07D1BDE8ED
:102D2C00F88F06B14042BAF1000F0CD022B1013D30
:102D3C00CAF80050BDE8F88F4D46F9E73024002F53
:102D4C00B3D10827B1E7BDE8F88F000037B5064CC2
:102D5C00064D2468246A002C08BF2C460094FFF70B
:102D6C0074FF03B030BD00BF54000020BC00002035
:102D7C002DE9F0410C46496B04F1440399421CD1F6
:102D8C004FF48061FEF76CFF18B94FF0FF30BDE8CF
:102D9C00F0814FF48063A36394F84630606380F84D
:102DAC00FF3394F8453000F2FD30437094F8443012
:102DBC00037020600020BDE8F081A66B77003A46D6
:102DCC0000F035F805460028DFD000EB0608014678
:102DDC003246404600F020F8C4F800806563A763D3
:102DEC00E8E749B1FF2A8BBF8A230A7003600120F0
:102DFC0088BF4FF0FF3070470846704710B5C9B216
:102E0C0002449042034601D1002010BD1C780130D1
:102E1C008C42F6D1184610BD10B5431E0A4491429F
:102E2C0000D110BD11F8014B03F8014FF7E7F8B5CD
:102E3C00074614460E4621B91146BDE8F840FEF788
:102E4C000FBF22B9FEF7C0FE25462846F8BD00F09C
:102E5C0014F884420FD921463846FEF701FF054687
:102E6C000028F2D031462246FFF7D6FF31463846CD
:102E7C00FEF7AAFEE9E73546E7E751F8040C00280F
:102E8C00A0F10400BCBF0B58C01870475822024B6D
:102E9C004FF0FF301A607047D8020020044B0246F6
:102EAC00196809B903491960186802441A60704717
:102EBC007C020020DC020020F8B500BFF8BC08BC86
:102ECC009E467047F8B500BFF8BC08BC9E467047DC
:102EDC0002030405060708090A0B0C0D0E0F10104F
:102EEC0002030405060708090A0B0C0D0E0F10103F
:102EFC00DC2F0008DF2F0008E22F00080000000084
:102F0C00000000000102030406070809000000008D
:102F1C00010203041F0000001C0000001F00000041
:102F2C001E0000001F0000001E0000001F0000001B
:102F3C001F0000001E0000001F0000001E0000000B
:102F4C001F0000001F0000001D0000001F000000FB
:102F5C001E0000001F0000001E0000001F000000EB
:102F6C001F0000001E0000001F0000001E000000DB
:102F7C001F000000545A00474D54002531305B5E51
:102F8C00302D392C2B2D5D256E004D256875256E49
:102F9C002E256875256E2E256875256E002F2568E3
:102FAC0075256E3A256875256E3A256875256E006F
:102FBC004300504F534958002E00686C4C00412D73
:102FCC0046612D66383930313233343536375D0051
:102FDC002B2D00303000785800002020202020209D
:102FEC0020202028282828282020202020202020AD
:102FFC0020202020202020202020881010101010AD
:10300C0010101010101010101010040404040404FC
:10301C0004040404101010101010104141414141DF
:10302C004101010101010101010101010101010144
:10303C0001010101011010101010104242424242D5
:10304C004202020202020202020202020202020214
:10305C0002020202021010101020000000000000FA
:10306C000000000000000000000000000000000054
:10307C000000000000000000000000000000000044
:10308C000000000000000000000000000000000034
:10309C000000000000000000000000000000000024
:1030AC000000000000000000000000000000000014
:1030BC000000000000000000000000000000000004
:1030CC0000000000000000000000000000000000F4
:1030DC0000000000000000000000000000000000E4
:1030EC0000000000000000000000000000000000D4
:1030FC0000000000000000000000000000000000C4
:10310C0000000000000000000000000000000000B3
:10311C0000000000000000000000000000000000A3
:10312C000000000000000000000000000000000093
:0C313C0000000000000000000000000087
:043148003101000849
:04314C000D01000869
:10315000010000001000000000A24A04832F0008B4
:10316000832F000801000000000000004A0000005A
:10317000000000000000000000000000000000004F
:1031800000000000000000004A00000000000000F5
:10319000000000000000000000000000000000002F
:1031A0000000000058000020000000000831000866
:1031B00028310008E830000800000000000000008E
:1031C00000000000000000000000000000000000FF
:1031D00000000000000000000000000000000000EF
:1031E00000000000000000000000000000000000DF
:1031F00000000000000000000000000000000000CF
:1032000000000000000000007802002043000000E1
:1032100000000000000000000000000000000000AE
:10322000000000000000000000000000430000005B
:10323000000000000000000000000000000000008E
:10324000000000000000000000000000430000003B
:10325000000000000000000000000000000000006E
:10326000000000000000000000000000430000001B
:10327000000000000000000000000000000000004E
:1032800000000000000000000000000043000000FB
:10329000000000000000000000000000000000002E
:1032A00000000000000000000000000043000000DB
:1032B000000000000000000000000000000000000E
:1032C00000000000000000000000000043000000BB
:1032D00000000000000000000000000000000000EE
:1032E000000000000000000000000000EF2D0008BA
:1032F000C525000800000000E52F0008C42F0008C5
:10330000DE2F0008DE2F0008DE2F0008DE2F000869
:10331000DE2F0008DE2F0008DE2F0008DE2F000859
:10332000DE2F0008FFFFFFFFFFFFFFFFFFFFFFFF94
:10333000FFFF000001004153434949000000000025
:10334000000000000000000000000000000000007D
:103350000000000000004153434949000000000004
:10336000000000000000000000000000000000005D
:08337000000000000000000055
:0400000508001925B1
:00000001FF
