:020000040800F2
:100000000050002025180008C5170008C717000871
:10001000C9170008CB170008CD1700080000000022
:10002000000000000000000000000000CF170008E2
:10003000D117000800000000D3170008D5170008EA
:100040006D1800086D1800086D1800086D1800087C
:100050006D1800086D1800086D1800086D1800086C
:100060006D1800086D1800086D1800086D1800085C
:100070006D1800086D1800086D1800086D1800084C
:100080006D1800086D1800086D1800086D1800083C
:100090006D1800086D1800086D1800086D1800082C
:1000A0006D1800086D1800086D1800086D1800081C
:1000B0006D1800086D1800086D1800086D1800080C
:1000C0006D1800086D1800086D1800086D180008FC
:1000D0006D1800086D1800086D1800086D180008EC
:1000E0006D1800086D1800086D1800080000000069
:1000F0000000000000000000000000000000000000
:0C01000000000000000000005FF808F1A3
:10010C0010B5054C237833B9044B13B10448AFF345
:10011C0000800123237010BD0C00002000000000A3
:10012C00C818000808B5034B1BB103490348AFF3CB
:10013C00008008BD0000000010000020C818000856
:10014C0038B50E4B054618784FF47A73B3FBF0F3C1
:10015C000B4A1068B0FBF3F000F080F8044658B975
:10016C000F2D09D8024629464FF0FF3000F042F817
:10017C00044B20461D6038BD012038BD0000002016
:10018C000800002004000020074A08B5136803206B
:10019C0043F01003136000F01BF80020FFF7D0FFB2
:1001AC0001F08EFA002008BD00200240034A044BE7
:1001BC0011681B780B441360704700BF300000209F
:1001CC0000000020014B1868704700BF3000002071
:1001DC00074A0002D36800F4E06023F4E0631B04D8
:1001EC001B0C43F0BF6343F400330343D3607047ED
:1001FC0000ED00E0174B30B5DC68C4F30224C4F109
:10020C000703251D042B28BF0423062D4FF00105E1
:10021C0098BF002405FA03F303F1FF3388BF033CB6
:10022C001940A14005FA04F4013C2240002842EA9E
:10023C0001024FEA0212AFBF00F16040064B00F022
:10024C000F00D2B2A5BFD2B200F561401A5480F8AB
:10025C00002330BD00ED00E014ED00E00138B0F1FA
:10026C00807F0AD2F021064B064A586082F8231090
:10027C000020072298601A6070470120704700BF69
:10028C0010E000E000ED00E02DE9F74F00221646EB
:10029C00654BDFF8A4E1DFF8A4C14FF001080C684E
:1002AC0008FA06F808EA0404A0457FD14D68122D1F
:1002BC0000F0AF8000F28880022D00F0A7807CD87F
:1002CC00002D00F08E80012D00F09E804FF00F0964
:1002DC00FF2C93BF824606F18045083DD0F800B054
:1002EC0092BFB500D0F804B0AD0009FA05F82BEABE
:1002FC00080802FA05F588BF00F1040A48EA05056A
:10030C00CAF80050D1F804A01AF0805F4ED0474DC7
:10031C00464FAD6926F0030845F00105BD61BD6986
:10032C0008F1804805F00105019508F5803806F0C4
:10033C00030B019D4FEA8B0BD8F8085009FA0BF907
:10034C0025EA09093A4DA84268D005F58065A8420E
:10035C0066D005F58065A84264D005F58065A84295
:10036C000CBF0325042505FA0BF545EA0905C8F869
:10037C0008501D681AF4803F14BF2543A5431D6027
:10038C005D681AF4003F14BF2543A5435D609D686A
:10039C001AF4801F14BF2543A5439D60DD681AF431
:1003AC00001F14BF2C4325EA0404DC600136102E18
:1003BC007FF473AF03B0BDE8F08F032D22D0112D65
:1003CC0084D1CA68043281E71A4FBD4209D012D8D1
:1003DC00DFF86C904D4504D009F580394D457FF41C
:1003EC0075AF8A68C2B1012A0CBFC0F81080C0F882
:1003FC00148008226AE77545F3D06545F1D0DFF823
:10040C004490EBE7002261E7CA685FE7CA680832EC
:10041C005CE7CA680C3259E7042257E70025A2E7CB
:10042C000125A0E702259EE70004014000100240D0
:10043C0000080140000021100000311000003210B3
:10044C0000001110000022100122014B1A607047AD
:10045C0020000E4203682DE9F341DB07054610D45A
:10046C002B689F075ED42B68190700F195802B68C9
:10047C005A0700F1BF80EA69002A40F02D81002064
:10048C0014E0904C636803F00C03042B07D06368F2
:10049C0003F00C03082B0CD16368DE0309D5236829
:1004AC009C03DDD56B68002BDAD1012002B0BDE8CE
:1004BC00F0816B68B3F5803F10D1236843F480332F
:1004CC002360FFF77FFE064623689803C8D4FFF726
:1004DC0079FE801B6428F7D90320E7E79BB92368D2
:1004EC0023F480332360236823F480232360FFF7F5
:1004FC0069FE064623689903B2D5FFF763FE801B9D
:10050C006428F7D9E8E7B3F5A02F236803D143F4A7
:10051C0080232360D1E723F480332360236823F402
:10052C008023CDE7674C636813F00C0F07D063682A
:10053C0003F00C03082B10D16368DA030DD4236885
:10054C009B0702D52B69012BAFD123686A6923F075
:10055C00F80343EAC203236085E72A695A4B6AB160
:10056C0001221A60FFF72EFE064623689F07ECD483
:10057C00FFF728FE801B0228F7D9ADE71A60FFF7BA
:10058C0021FE0646236898077FF56DAFFFF71AFE2C
:10059C00801B0228F6D99FE7AA694A4C4B4BDAB16B
:1005AC0001221A60FFF70EFE0646636A9B070DD503
:1005BC004FF4FA52464B1B68B3FBF2F3019300BFA6
:1005CC00019B5A1E0192002BF9D150E7FFF7FAFD5F
:1005DC00801B0228E9D97FE71A60FFF7F3FD064676
:1005EC00636A9F077FF543AFFFF7ECFD801B022882
:1005FC00F6D971E7334CE369D80024D40127E369B9
:10060C0043F08053E361E36903F080530093009B54
:10061C00304E3368D90518D5EB68012B26D1236AE7
:10062C0043F001032362FFF7CDFD41F2883680468B
:10063C00236A9B073FD5002F3FF41DAFE36923F0DE
:10064C008053E36117E70027E2E7336843F48073D4
:10065C003360FFF7B7FD80463368DA05DCD4FFF76B
:10066C00B1FDA0EB08006428F6D935E7ABB9236AD5
:10067C0041F2883823F001032362236A23F0040338
:10068C002362FFF79FFD0646236A9807D3D5FFF731
:10069C0099FD801B4045F7D91EE7052B236A03D132
:1006AC0043F004032362BAE723F001032362236AB5
:1006BC0023F00403B6E7FFF785FDA0EB0800B0427A
:1006CC00B6D909E7001002400000424280044242C1
:1006DC000800002000700040224C636803F00C03FB
:1006EC00082B3FF4E2AE00231F4E022A33602BD1BD
:1006FC00FFF768FD0746236899011FD42B6AB3F5F1
:10070C00803F05D16268A96822F400320A43626016
:10071C00696A62680B4322F4741213436360012309
:10072C003360FFF74FFD054623689A013FF5A7AEEE
:10073C00FFF748FD401B0228F6D9CDE6FFF742FD36
:10074C00C01B0228D7D9C7E6FFF73CFD0546236836
:10075C009B017FF594AEFFF735FD401B0228F6D9BF
:10076C00BAE600BF001002406000424230B5194B9F
:10077C0087B002AC03F1100522461868596808339B
:10078C0003C2AB421446F7D101238DF80430022387
:10079C0011498DF805304B6803F00C02082A17D16B
:1007AC00C3F3834206A80244DB0312F8102C0CD5C9
:1007BC004B680A48C3F34043504306AA134413F84A
:1007CC00143CB0FBF3F007B030BD05485043FAE7DA
:1007DC000248F8E7E01800080010024000127A0006
:1007EC0000093D00544A2DE9F0411368054603F019
:1007FC0007038B420E462AD329688C0734D4CA07C8
:10080C0047D44D4A136803F007039E42C0F0828020
:10081C002A684A4C12F0040F40F08780130706D563
:10082C0063682A6923F4605343EAC2036360FFF7E9
:10083C009DFF6368424AC3F30313D35CD840414B1A
:10084C0018600020FFF77CFC0020BDE8F0811368E5
:10085C0023F007030B431360136803F0070399425B
:10086C00CAD00120BDE8F081344B11F0040F1EBF3B
:10087C005A6842F4E0625A60080742BF5A6842F470
:10088C0060525A605A68A86822F0F00202435A601B
:10089C00B5E76A68294C012A23681CD113F4003F80
:1008AC00DFD0636841F2883823F00303134363609D
:1008BC00FFF788FC6B680746012B14D1636803F0C3
:1008CC000C03042B9DD0FFF77DFCC01B4045F5D9D4
:1008DC000320BDE8F081022A02D113F0007FDFE78C
:1008EC0013F0020FDCE7022B0FD1636803F00C034B
:1008FC00082B86D0FFF766FCC01B4045F5D9E7E70F
:10090C00FFF760FCC01B4045E2D8636813F00C0F86
:10091C00F6D176E7136823F00703334313601368AB
:10092C0003F007039E429CD172E76368E96823F4E5
:10093C00E0630B43636071E700200240001002404B
:10094C000019000808000020044B054A5B68C3F33B
:10095C00C223D35C034A1068D84070470010024091
:10096C00101900080800002003682DE9F341D9078D
:10097C00054620D5354CE369DA0032D40127E3690A
:10098C0043F08053E361E36903F080530193019BCF
:10099C002F4E3368DB0526D5236A13F4407336D10A
:1009AC00236A6A6823F44073134323621FB1E3691B
:1009BC0023F08053E3612868830706D5234AA9688E
:1009CC00536823F440430B43536010F010001BD0CA
:1009DC001E4AE9685368002023F480030B435360DC
:1009EC0012E00027D4E7336843F480733360FFF7D9
:1009FC00E9FB80463368D805CED4FFF7E3FBA0EBC8
:100A0C0008006428F6D9032002B0BDE8F0816A68BA
:100A1C0002F440729342C3D001200E4A236A106044
:100A2C00002023F4407110602162D907B8D5FFF77C
:100A3C00C9FB41F288380646236A9A07B0D4FFF7FF
:100A4C00C1FB801B4045F7D9DDE700BF0010024019
:100A5C00007000404004424270B50446354B86B0ED
:100A6C0002AD03F110062A4618685968083303C210
:100A7C00B3421546F7D101238DF8043002239C4272
:100A8C008DF8053047D0102C17D0012C4FD140F2E7
:100A9C000231294A136A1940B1F5817F44D003F41D
:100AAC004073B3F5007F2DD149F64040536A13F0E3
:100ABC00020F08BF002006B070BD1F4B59681868A4
:100ACC0010F08070F7D0C1F3834206A8024412F8EC
:100ADC00100CCA0341BF5A6806A9C2F3404252180F
:100AEC0044BF12F8141C154A5B684CBFB2FBF1F200
:100AFC00134A5B0202FB00F0DDD403234000B0FB81
:100B0C00F3F0D8E7B3F5407F11D113684FF22440CE
:100B1C0013F4003FCDE7FFF717FF074B5B68C3F3F8
:100B2C00813301335B00EAE74FF40040C3E7002058
:100B3C00C1E700BFF01800080010024000127A0054
:100B4C0000093D00036830B59A69D869996995B276
:100B5C008CB2A5421DBFD86980B240EA014080B278
:100B6C0008BF40EA024030BD0368186A5B6A9BB25A
:100B7C0043EA004070470023092803D840EA0310D9
:100B8C00C0B270470A380133C0B2F5E70A22030934
:100B9C0000F00F0002FB0300C0B27047022970B5D1
:100BAC004FF0170300F5FA654FF009061AD84B43BE
:100BBC0000F2CF74B3FBF6F04FF4C873B4FBF3F34D
:100BCC0004322A44104400EB940018446423B4FB10
:100BDC00F3F4001B0723B0FBF3F3C3EBC303C01AFE
:100BEC00C0B270BD03FB01F0B0FBF6F002322A4438
:100BFC004FF4C87310446422B5FBF3F3B5FBF2F267
:100C0C0000EB95001844801AE4E738B50446FFF76A
:100C1C00D9FA054623685A68920605D55A68002009
:100C2C0042F010025A6038BDFFF7CCFA401BB0F509
:100C3C007A7FEFD9032038BD026838B55368044673
:100C4C0023F010035360FFF7BDFA054623685B6879
:100C5C009B0601D5002038BDFFF7B4FA401BB0F558
:100C6C007A7FF3D9032038BD38B505460C46FFF71B
:100C7C00CCFF58B92B68220CA4B29A612846DC61CF
:100C8C00FFF7DAFF003018BF012038BD012038BD56
:100C9C0038B505460C46FFF7B8FF58B92B68220C3F
:100CAC00A4B21A6228465C62FFF7C6FF003018BF78
:100CBC00012038BD012038BD70B50446E0B1D9B172
:100CCC00037C0226012B46D001234674037408785A
:100CDC004E78897892B93C254FF46163754303FBD8
:100CEC000050451829462046FFF7BEFF0646B0B116
:100CFC00042363740023237401262CE0FFF746FFC2
:100D0C0005463046FFF742FF3C2358434FF46163DE
:100D1C0003FB05050846FFF739FF0544E2E72268A7
:100D2C002046536823F005035360FFF71DFF431C57
:100D3C000DD085420BD900F5A83101F5C0712046C4
:100D4C00FFF7A6FF18B1042326746374D4E70123BC
:100D5C00637400232374304670BD00002DE9F84302
:100D6C000D469046044610B90120BDE8F8830029D1
:100D7C00FAD003685B685E07F6D4FFF7E3FE4FF426
:100D8C006162B0FBF2F3074602FB13023C20B2FB9C
:100D9C00F0F100FB1122172B6970AA7040F28580CC
:100DAC001821B3FBF1F201FB123320462B70FFF735
:100DBC00DBFE411C064604D087422CBF4FF0FF36A9
:100DCC00C61B404B2046B7FBF3F903FB1979494688
:100DDC00FFF74AFF0028C7D1721C2FD009EB060180
:100DEC002046FFF755FF0028BED1364B0026B7FB37
:100DFC00F3F74FF0640E4FF4C87C40F2D529E07B3A
:100E0C00617BA27BB7421BD1C9B2D2B2E0736173D2
:100E1C00A273FFF7C3FE2073B8F1000F0BD0287834
:100E2C00FFF7A9FE28706878FFF7A5FE6870A87810
:100E3C00FFF7A1FEA8700020BDE8F8833146CFE78C
:100E4C004B1E092B35D829FA03F3DB072FD421F0DD
:100E5C000203042B01D0092B04D11D2A06D9013120
:100E6C0001222DE002292BD11B2A01D8013227E0C7
:100E7C001C2A13D182B2930712D1B2FBFEF30EFBE4
:100E8C0013239BB27BB9B2FBFCF30CFB13239BB279
:100E9C00002B16BF01221D22032111E01D2A0FD1A8
:100EAC00012203210CE01D220AE02B70B4E71E2A5C
:100EBC00D4E70C29CBD11E2AD8D9012211460130F6
:100ECC0001369FE78051010070B50D46044658B3BA
:100EDC0051B3037C0220012B27D0012360742374AF
:100EEC00C8781ABBE0734B7863738B78A373A27BBF
:100EFC00617BE07BFFF752FE207328702046FFF7E2
:100F0C0021FE1C4B984230D9A3F60F63B0FBF3F5CE
:100F1C0003FB150520462946FFF7A6FE064688B1B9
:100F2C000423637400232374012070BDFFF72EFE8D
:100F3C00E0734878FFF72AFE60738878FFF726FE87
:100F4C00A073D4E72046FFF70FFE431C0DD085425B
:100F5C000BD900F5A83101F5C0712046FFF798FEBA
:100F6C0018B1042326746374DEE701230020637434
:100F7C00207470BD8F5F0100F7B5174600220C4638
:100F8C00ADF804208DF80620054618B9012210464C
:100F9C0003B0F0BD0029F9D001A9FFF7DFFE02462E
:100FAC000028F3D12B7B2370E87BE0706E7B66709E
:100FBC00A97BA170002FEAD0FFF7DDFDE070304671
:100FCC00FFF7D9FD60700846FFF7D5FDA070DEE78E
:100FDC0038B50446A8B10268536823F0080353607F
:100FEC00FFF7F0F8054623685B681B0701D5002066
:100FFC0038BDFFF7E7F8401BB0F57A7FF3D9032033
:10100C0038BD012038BD000010B5044670B1437CDA
:10101C0003F0FF0213B9027400F074FB02232046A4
:10102C006374FFF7D5FF18B104236374012010BD5E
:10103C002046FFF7EAFD0028F6D12268A068536825
:10104C0023F007035360174A18B1116B21F001010B
:10105C001163D36A23F460730343D3626068431C47
:10106C0005D10120FFF7F8FC0028DDD001382268FB
:10107C00936823F00F0343EA10439360D36880B264
:10108C001B0C1B041843D0602046FFF7D5FD012331
:10109C0010B104226274C9E7E0736373A3736374C1
:1010AC0010BD00BF006C0040036A70B523F0010353
:1010BC000362036A446882690D6822F073022A4352
:1010CC008D6823F002032B430A4DA8420BD1CD6847
:1010DC0023F008032B438E694D6924F44074354387
:1010EC0023F004032C43446082614A684263036228
:1010FC0070BD00BF002C0140036A70B523F48073EF
:10110C000362036A4468C2690D6822F073022A43C1
:10111C008D6823F4007343EA05230B4DA8420DD1CF
:10112C00CD6823F4006343EA05238E694D6924F4EA
:10113C004054354323F4806344EA05144460C2618F
:10114C004A68C263036270BD002C0140036A30B56B
:10115C0023F480530362036A4468C2690D6822F465
:10116C00E64242EA05228D6823F4005343EA053334
:10117C00064DA84202BF4D6924F4804444EA85140C
:10118C004460C2614A680264036230BD002C0140B5
:10119C001A4A036890420AD0B0F1804F07D0A2F5EA
:1011AC009432904203D002F58062904215D14A6885
:1011BC0023F070031343114A90420AD0B0F1804FD0
:1011CC0007D0A2F59432904203D002F5806290428F
:1011DC0003D1CA6823F4407313434A6923F0800394
:1011EC00134303608B68C3620B688362034B9842A2
:1011FC0004BF0B690363012343617047002C01405A
:10120C0010B50446A0B190F83D3003F0FF021BB9B5
:10121C0080F83C2000F094FA0223206884F83D30DA
:10122C00211DFFF7B5FF0123002084F83D3010BDD0
:10123C00012010BD036A70B523F010030362036A2A
:10124C00446882690D6822F4E64242EA05228D6800
:10125C0023F0200343EA05130B4DA8420DD1CD68B2
:10126C0023F0800343EA05138E694D6924F440642E
:10127C00354323F0400344EA8504446082614A68A4
:10128C008263036270BD00BF002C014038B590F83A
:10129C003C300446012B4FF0020025D0012384F88A
:1012AC003D0084F83C300C2A18D8DFE802F0071710
:1012BC0017171E1717172F17171740002068FFF75F
:1012CC00F3FE236809699A6942F008029A619A69E7
:1012DC0022F004029A619A690A439A610123002060
:1012EC0084F83D3084F83C0038BD2068FFF7A2FF3D
:1012FC00236809699A6942F400629A619A6922F436
:10130C0080629A619A6942EA0122E6E72068FFF757
:10131C00F3FE23680969DA6942F00802DA61DA69D6
:10132C0022F00402DA61DA690A43DA61D6E720684E
:10133C00FFF70CFF23680969DA6942F40062DA618D
:10134C00DA6922F48062DA61DA6942EA0122ECE7B6
:10135C0010B50124036A8C4023EA04030362036A78
:10136C008A401A43026210BD10B50446012200687F
:10137C00FFF7EEFF2368064A0020934202BF5A6C27
:10138C0042F400425A641A6842F001021A6010BD1D
:10139C00002C014010B5044600220068FFF7D8FF6E
:1013AC002368124A93420DD141F21112196A11426B
:1013BC0008D140F24442196A114202BF5A6C22F41D
:1013CC0000425A6441F21112196A114208D140F2DA
:1013DC004442196A114202BF1A6822F001021A60D3
:1013EC000123002084F83D3010BD00BF002C0140CB
:1013FC0090F83C30012B1FD0CB688A6823F44073E3
:10140C0013434A6823F4806313430A6823F400638C
:10141C0013430A6923F4805313434A6923F400539A
:10142C0013438A6923F44043134302685364002333
:10143C0080F83C30184670470220704790F83C30DA
:10144C0010B5012B4FF0020318D080F83D30036823
:10145C000C685A68496822F070025A605A68224334
:10146C005A609A6822F080029A609A680A439A60DD
:10147C00012380F83D30002380F83C30184610BD25
:10148C00282230B595B00DEB0200002100F00EFAC9
:10149C00142200210DEB020000F008FA10220021AA
:1014AC0001A800F003FA05230A934FF480330124BA
:1014BC0002250B9312934FF4E0130AA813930D9487
:1014CC000E941195FEF7C6FF0F234FF4806205931F
:1014DC000023294605A80793089209930695FFF760
:1014EC0081F94FF4807301A801940293FFF73CFA41
:1014FC0015B030BD80B5A4B0FEF746FEFFF7C0FFB7
:10150C00534B00249A69534F42F010029A619A6926
:10151C00514902F010021192119A9A69384642F020
:10152C0020029A619A694D4E02F020021292129A90
:10153C009A69DFF8348142F004029A619B694FF09A
:10154C00FF3203F004031393139B4FF48073ADF835
:10155C00584087E80E008DF85A401D94FFF754FD53
:10156C00012216A938468DF858408DF859408DF84F
:10157C005A40FFF7A1FB01221DA938468DF87420B3
:10158C008DF875208DF876208DF87740FFF79CFC50
:10159C001C22214616A81494159400F087F91C22DD
:1015AC0021461DA800F082F92D4B304686E8180024
:1015BC00B460F46034617461B461FFF721FE14A966
:1015CC00304614941594FFF739FF6023224616A970
:1015DC00304616931794189419941A941B941C94CF
:1015EC00FFF754FE4FF400531DA9304622931D946F
:1015FC001E941F94209421942394FFF7F9FE3046F7
:10160C0000F0B2F8174C012217493846FFF7B4FC2A
:10161C00012221463846FFF7A1FB98F80030012B38
:10162C00F0D12278072AEDD1FF226C460F4D0E9394
:10163C000D920C930FCD0FC40FCD0FC495E80F0076
:10164C0084E80F0096E80F0000F012F8DAE700BF0C
:10165C000010024034000020002800404800002008
:10166C00002C01402C0000202800002058000020F5
:10167C0084B000B589B00DF1280E8EE80F007046CD
:10168C001A99FFF787FEBDF86C300AA80D93FFF787
:10169C00B7FD60230193BDF870301A9A02930023B2
:1016AC0001A90AA803930593FFF7F0FD1A990AA85C
:1016BC00FFF75AFE09B05DF804EB04B07047000068
:1016CC000E4B82B09A6942F001029A619A6902F05B
:1016DC0001020092009ADA6942F08052DA61DB6909
:1016EC00074A03F080530193019B536823F0E06396
:1016FC0043F08063536002B0704700BF001002409B
:10170C000000014007B50B4B02689A420ED1FEF760
:10171C009BFE094BDA6942F00062DA610122DB6957
:10172C0003F000630193019B044B1A6003B05DF856
:10173C0004FB00BF00280040001002403C04424261
:10174C000268084B82B09A420AD103F564439A6945
:10175C0042F400629A619B6903F400630193019B5C
:10176C0002B07047002C014010B5044686B0102220
:10177C00002102A800F09AF822680D4B9A4214D16D
:10178C0003F564439A6902A942F004029A619B69C9
:10179C00084803F004030193019B4FF480730293F8
:1017AC00022303930593FEF76FFD06B010BD00BF37
:1017BC00002C0140000801407047FEE7FEE7FEE701
:1017CC00FEE7704770477047FEF7F0BC0F4B1A6886
:1017DC0042F001021A6059680D4A0A405A601A68B0
:1017EC0022F0847222F480321A601A6822F4802269
:1017FC001A605A6822F4FE025A604FF41F029A6073
:10180C004FF00062034B9A60704700BF001002401B
:10181C000000FFF800ED00E0002103E00B4B5B58EB
:10182C00435004310A480B4B42189A42F6D30A4AE9
:10183C0002E0002342F8043B084B9A42F9D3FFF72D
:10184C00C5FF00F00FF8FFF755FE70472019000890
:10185C00000000200C0000200C000020880000205C
:10186C00FEE7000070B500250C4E0D4CA41BA41017
:10187C00A54209D100F022F800250A4E0A4CA41BFF
:10188C00A410A54205D170BD56F8253098470135F6
:10189C00EEE756F8253098470135F2E7181900089D
:1018AC0018190008181900081C19000803460244EE
:1018BC00934200D1704703F8011BF9E7F8B500BF5C
:1018CC00F8BC08BC9E467047F8B500BFF8BC08BC15
:0418DC009E4670476D
:1018E00002030405060708090A0B0C0D0E0F101061
:1018F00002030405060708090A0B0C0D0E0F101051
:1019000000000000000000000102030406070809AF
:081910000000000001020304C5
:041918003101000891
:04191C000D010008B1
:0C192000010000001000000000A24A04BA
:0400000508001825B2
:00000001FF
